{
  "_format": "hh-sol-artifact-1",
  "contractName": "FightClub",
  "sourceName": "contracts/FightClub.sol",
  "abi": [
    {
      "inputs": [
        {
          "internalType": "uint256",
          "name": "_elementsMatrix",
          "type": "uint256"
        },
        {
          "internalType": "address",
          "name": "_signerAddress",
          "type": "address"
        },
        {
          "internalType": "address",
          "name": "_verifySignatureAddress",
          "type": "address"
        },
        {
          "internalType": "bytes32",
          "name": "_provenanceHash",
          "type": "bytes32"
        }
      ],
      "stateMutability": "nonpayable",
      "type": "constructor"
    },
    {
      "anonymous": false,
      "inputs": [
        {
          "indexed": false,
          "internalType": "uint24",
          "name": "_winner",
          "type": "uint24"
        }
      ],
      "name": "Winner",
      "type": "event"
    },
    {
      "inputs": [
        {
          "internalType": "uint128",
          "name": "_random",
          "type": "uint128"
        }
      ],
      "name": "addRandomness",
      "outputs": [],
      "stateMutability": "nonpayable",
      "type": "function"
    },
    {
      "inputs": [
        {
          "internalType": "uint16",
          "name": "_fighterIdentifier",
          "type": "uint16"
        }
      ],
      "name": "bracketWithOnlyFighterAlive",
      "outputs": [
        {
          "internalType": "uint256",
          "name": "",
          "type": "uint256"
        }
      ],
      "stateMutability": "pure",
      "type": "function"
    },
    {
      "inputs": [],
      "name": "emergencyWithdrawal",
      "outputs": [],
      "stateMutability": "nonpayable",
      "type": "function"
    },
    {
      "inputs": [],
      "name": "evaluateWinner",
      "outputs": [],
      "stateMutability": "nonpayable",
      "type": "function"
    },
    {
      "inputs": [
        {
          "internalType": "bool",
          "name": "_isSimulated",
          "type": "bool"
        },
        {
          "internalType": "uint32",
          "name": "_fighterOne",
          "type": "uint32"
        },
        {
          "internalType": "uint32",
          "name": "_fighterTwo",
          "type": "uint32"
        },
        {
          "internalType": "uint256",
          "name": "_random",
          "type": "uint256"
        },
        {
          "internalType": "uint256",
          "name": "_blockNumber",
          "type": "uint256"
        }
      ],
      "name": "fight",
      "outputs": [
        {
          "internalType": "uint128",
          "name": "",
          "type": "uint128"
        }
      ],
      "stateMutability": "view",
      "type": "function"
    },
    {
      "inputs": [],
      "name": "getBet",
      "outputs": [
        {
          "internalType": "uint16",
          "name": "",
          "type": "uint16"
        },
        {
          "internalType": "uint80",
          "name": "",
          "type": "uint80"
        },
        {
          "internalType": "uint80",
          "name": "",
          "type": "uint80"
        },
        {
          "internalType": "uint8",
          "name": "",
          "type": "uint8"
        }
      ],
      "stateMutability": "view",
      "type": "function"
    },
    {
      "inputs": [],
      "name": "getBracketStatus",
      "outputs": [
        {
          "internalType": "uint256",
          "name": "",
          "type": "uint256"
        },
        {
          "internalType": "uint256",
          "name": "",
          "type": "uint256"
        },
        {
          "internalType": "uint256",
          "name": "",
          "type": "uint256"
        },
        {
          "internalType": "uint256",
          "name": "",
          "type": "uint256"
        }
      ],
      "stateMutability": "view",
      "type": "function"
    },
    {
      "inputs": [
        {
          "internalType": "uint80",
          "name": "_equity",
          "type": "uint80"
        },
        {
          "internalType": "uint8",
          "name": "_lastRoundUpdated",
          "type": "uint8"
        }
      ],
      "name": "getEquityForBet",
      "outputs": [
        {
          "internalType": "uint80",
          "name": "",
          "type": "uint80"
        }
      ],
      "stateMutability": "view",
      "type": "function"
    },
    {
      "inputs": [
        {
          "internalType": "uint16",
          "name": "_fighterIdentifier",
          "type": "uint16"
        }
      ],
      "name": "getFighterTotalPot",
      "outputs": [
        {
          "internalType": "uint8",
          "name": "",
          "type": "uint8"
        },
        {
          "internalType": "uint80",
          "name": "",
          "type": "uint80"
        },
        {
          "internalType": "uint80",
          "name": "",
          "type": "uint80"
        }
      ],
      "stateMutability": "view",
      "type": "function"
    },
    {
      "inputs": [],
      "name": "getRandomness",
      "outputs": [
        {
          "internalType": "uint256",
          "name": "",
          "type": "uint256"
        }
      ],
      "stateMutability": "view",
      "type": "function"
    },
    {
      "inputs": [],
      "name": "getTotalPot",
      "outputs": [
        {
          "internalType": "uint256",
          "name": "",
          "type": "uint256"
        }
      ],
      "stateMutability": "view",
      "type": "function"
    },
    {
      "inputs": [
        {
          "internalType": "address",
          "name": "_user",
          "type": "address"
        }
      ],
      "name": "getUserRandomness",
      "outputs": [
        {
          "internalType": "uint256",
          "name": "",
          "type": "uint256"
        }
      ],
      "stateMutability": "view",
      "type": "function"
    },
    {
      "inputs": [
        {
          "internalType": "uint16",
          "name": "_fighterIdentifier",
          "type": "uint16"
        }
      ],
      "name": "isFighterAlive",
      "outputs": [
        {
          "internalType": "bool",
          "name": "",
          "type": "bool"
        }
      ],
      "stateMutability": "view",
      "type": "function"
    },
    {
      "inputs": [
        {
          "internalType": "uint16",
          "name": "_fighterIdentifier",
          "type": "uint16"
        }
      ],
      "name": "placeBet",
      "outputs": [],
      "stateMutability": "payable",
      "type": "function"
    },
    {
      "inputs": [
        {
          "internalType": "bytes",
          "name": "_signature",
          "type": "bytes"
        }
      ],
      "name": "redeemFighterBounty",
      "outputs": [],
      "stateMutability": "nonpayable",
      "type": "function"
    },
    {
      "inputs": [],
      "name": "redeemPot",
      "outputs": [],
      "stateMutability": "nonpayable",
      "type": "function"
    },
    {
      "inputs": [
        {
          "internalType": "uint256",
          "name": "_fighterTrancheOne",
          "type": "uint256"
        },
        {
          "internalType": "uint256",
          "name": "_fighterTrancheTwo",
          "type": "uint256"
        },
        {
          "internalType": "uint256",
          "name": "_fighterTrancheThree",
          "type": "uint256"
        },
        {
          "internalType": "uint256",
          "name": "_fighterTrancheFour",
          "type": "uint256"
        }
      ],
      "name": "setBracketStatus",
      "outputs": [],
      "stateMutability": "nonpayable",
      "type": "function"
    },
    {
      "inputs": [
        {
          "internalType": "bool",
          "name": "_bettingIsOpen",
          "type": "bool"
        },
        {
          "internalType": "uint8",
          "name": "_currentRound",
          "type": "uint8"
        }
      ],
      "name": "setConfig",
      "outputs": [],
      "stateMutability": "nonpayable",
      "type": "function"
    },
    {
      "inputs": [
        {
          "internalType": "bool",
          "name": "_isError",
          "type": "bool"
        }
      ],
      "name": "setConfigError",
      "outputs": [],
      "stateMutability": "nonpayable",
      "type": "function"
    }
  ],
  "bytecode": "0x60806040523480156200001157600080fd5b50604051620047ab380380620047ab8339818101604052810190620000379190620001bc565b336000806101000a81548173ffffffffffffffffffffffffffffffffffffffff021916908373ffffffffffffffffffffffffffffffffffffffff16021790555083600181905550608043426040516020016200009592919062000243565b6040516020818303038152906040528051906020012060001c901c60028190555062ffffff600860000160046101000a81548162ffffff021916908362ffffff16021790555082600860000160076101000a81548173ffffffffffffffffffffffffffffffffffffffff021916908373ffffffffffffffffffffffffffffffffffffffff16021790555081600860010160006101000a81548173ffffffffffffffffffffffffffffffffffffffff021916908373ffffffffffffffffffffffffffffffffffffffff160217905550806008600501819055505050505062000313565b6000815190506200018881620002c5565b92915050565b6000815190506200019f81620002df565b92915050565b600081519050620001b681620002f9565b92915050565b60008060008060808587031215620001d357600080fd5b6000620001e387828801620001a5565b9450506020620001f68782880162000177565b9350506040620002098782880162000177565b92505060606200021c878288016200018e565b91505092959194509250565b6200023d6200023782620002b1565b620002bb565b82525050565b600062000251828562000228565b60208201915062000263828462000228565b6020820191508190509392505050565b6000620002808262000291565b9050919050565b6000819050919050565b600073ffffffffffffffffffffffffffffffffffffffff82169050919050565b6000819050919050565b6000819050919050565b620002d08162000273565b8114620002dc57600080fd5b50565b620002ea8162000287565b8114620002f657600080fd5b50565b6200030481620002b1565b81146200031057600080fd5b50565b61448880620003236000396000f3fe6080604052600436106101145760003560e01c806383a12d49116100a0578063cefadde911610064578063cefadde91461035e578063d201298c14610387578063eca2570a146103c6578063fa7b917114610403578063fd9cf19e1461044057610114565b806383a12d49146102835780638fb61629146102c0578063aaae7b86146102e9578063b8be239414610314578063c6d21e811461033057610114565b806357a15649116100e757806357a15649146101b25780635b0a3843146101c95780635d3f8c93146101e05780635edec093146102095780636b88d8d21461024657610114565b806320835e8c146101195780632e521eb514610147578063480bc31f1461015e5780634814516f14610189575b600080fd5b34801561012557600080fd5b5061012e610469565b60405161013e94939291906136fc565b60405180910390f35b34801561015357600080fd5b5061015c61051c565b005b34801561016a57600080fd5b506101736109d6565b604051610180919061375c565b60405180910390f35b34801561019557600080fd5b506101b060048036038101906101ab9190612fc8565b6109e3565b005b3480156101be57600080fd5b506101c7610b4d565b005b3480156101d557600080fd5b506101de610f0e565b005b3480156101ec57600080fd5b5061020760048036038101906102029190612f4b565b61107b565b005b34801561021557600080fd5b50610230600480360381019061022b9190612ff1565b6111a3565b60405161023d919061375c565b60405180910390f35b34801561025257600080fd5b5061026d60048036038101906102689190612ff1565b6111e0565b60405161027a919061347d565b60405180910390f35b34801561028f57600080fd5b506102aa60048036038101906102a59190612e59565b611291565b6040516102b7919061375c565b60405180910390f35b3480156102cc57600080fd5b506102e760048036038101906102e29190612f87565b6112da565b005b3480156102f557600080fd5b506102fe61152a565b60405161030b919061375c565b60405180910390f35b61032e60048036038101906103299190612ff1565b611534565b005b34801561033c57600080fd5b50610345611b88565b6040516103559493929190613777565b60405180910390f35b34801561036a57600080fd5b506103856004803603810190610380919061301a565b611bdd565b005b34801561039357600080fd5b506103ae60048036038101906103a99190612ff1565b611cc2565b6040516103bd939291906137d7565b60405180910390f35b3480156103d257600080fd5b506103ed60048036038101906103e89190612ed4565b611d3b565b6040516103fa91906136e1565b60405180910390f35b34801561040f57600080fd5b5061042a6004803603810190610425919061307d565b6122a5565b60405161043791906137bc565b60405180910390f35b34801561044c57600080fd5b5061046760048036038101906104629190612e82565b6122ef565b005b6000806000806000600460003373ffffffffffffffffffffffffffffffffffffffff1673ffffffffffffffffffffffffffffffffffffffff16815260200190815260200160002090508060000160029054906101000a900461ffff168160000160049054906101000a900469ffffffffffffffffffff1682600001600e9054906101000a900469ffffffffffffffffffff168360000160019054906101000a900460ff1694509450945094505090919293565b600a600860000160039054906101000a900460ff1660ff1614610574576040517f08c379a000000000000000000000000000000000000000000000000000000000815260040161056b90613581565b60405180910390fd5b6000600460003373ffffffffffffffffffffffffffffffffffffffff1673ffffffffffffffffffffffffffffffffffffffff16815260200190815260200160002090506105d28160000160029054906101000a900461ffff166111e0565b610611576040517f08c379a000000000000000000000000000000000000000000000000000000000815260040161060890613641565b60405180910390fd5b8060000160009054906101000a900460ff1615610663576040517f08c379a000000000000000000000000000000000000000000000000000000000815260040161065a90613601565b60405180910390fd5b60018160000160006101000a81548160ff02191690831515021790555060008160000160019054906101000a900460ff16600860000160039054906101000a900460ff166106b19190613cf8565b90508060026106c09190613a64565b82600001600e8282829054906101000a900469ffffffffffffffffffff166106e89190613c4c565b92506101000a81548169ffffffffffffffffffff021916908369ffffffffffffffffffff160217905550600860000160039054906101000a900460ff168260000160016101000a81548160ff021916908360ff1602179055506000600760008460000160029054906101000a900461ffff1661ffff1661ffff16815260200190815260200160002090508060000160019054906101000a900460ff16600860000160039054906101000a900460ff166107a19190613cf8565b91508160026107b09190613a64565b81600001600e8282829054906101000a900469ffffffffffffffffffff166107d89190613c4c565b92506101000a81548169ffffffffffffffffffff021916908369ffffffffffffffffffff160217905550600860000160039054906101000a900460ff168160000160016101000a81548160ff021916908360ff1602179055506108a06040518060800160405280604181526020016144126041913984600001600e9054906101000a900469ffffffffffffffffffff1669ffffffffffffffffffff1683600001600e9054906101000a900469ffffffffffffffffffff1669ffffffffffffffffffff1661239d565b600060086004015414156108b7576108b661243c565b5b600081600001600e9054906101000a900469ffffffffffffffffffff1669ffffffffffffffffffff1684600001600e9054906101000a900469ffffffffffffffffffff1669ffffffffffffffffffff166008600301546109179190613bb7565b61092191906139e0565b90506109456040518060600160405280602c8152602001614389602c9139826124b9565b3373ffffffffffffffffffffffffffffffffffffffff166108fc829081150290604051600060405180830381858888f1935050505015801561098b573d6000803e3d6000fd5b5080600860020160008282546109a19190613cc4565b925050819055506109d06040518060600160405280602e81526020016143e4602e91398260086002015461239d565b50505050565b6000600860020154905090565b60006002600a436109f491906139e0565b6109fe9190613f37565b1480610a195750600860000160029054906101000a900460ff165b610a58576040517f08c379a0000000000000000000000000000000000000000000000000000000008152600401610a4f90613621565b60405180910390fd5b6001816fffffffffffffffffffffffffffffffff1611610aad576040517f08c379a0000000000000000000000000000000000000000000000000000000008152600401610aa490613541565b60405180910390fd5b6080804383604051602001610ac39291906133d9565b6040516020818303038152906040528051906020012060001c901c600254610aeb9190613bb7565b901c6002819055506001600660003373ffffffffffffffffffffffffffffffffffffffff1673ffffffffffffffffffffffffffffffffffffffff1681526020019081526020016000206000828254610b4391906138e2565b9250508190555050565b600a600860000160039054906101000a900460ff1660ff1614610ba5576040517f08c379a0000000000000000000000000000000000000000000000000000000008152600401610b9c90613581565b60405180910390fd5b6000600360006001600860000160039054906101000a900460ff16610bca9190613cf8565b60ff16815260200190815260200160002090506000806000836000015414610bfc578260000154915060009050610c52565b6000836001015414610c1957826001015491506101009050610c51565b6000836002015414610c3657826002015491506102009050610c50565b6000836003015414610c4f578260030154915061030090505b5b5b5b60006001600860000160039054906101000a900460ff16610c739190613cf8565b60ff1690505b6001811115610e17576000600360008381526020019081526020016000209050600083148015610caf5750600084826000015416145b15610cf3577fde2bff2d6b387fb139cc88f40ef98966425b338cd8a98b2b4e8230a99c74cfe362ffffff604051610ce69190613498565b60405180910390a1610e03565b61010083148015610d0a5750600084826001015416145b15610d4e577fde2bff2d6b387fb139cc88f40ef98966425b338cd8a98b2b4e8230a99c74cfe362ffffff604051610d419190613498565b60405180910390a1610e02565b61020083148015610d655750600084826002015416145b15610da9577fde2bff2d6b387fb139cc88f40ef98966425b338cd8a98b2b4e8230a99c74cfe362ffffff604051610d9c9190613498565b60405180910390a1610e01565b61030083148015610dc05750600084826003015416145b15610e00577fde2bff2d6b387fb139cc88f40ef98966425b338cd8a98b2b4e8230a99c74cfe362ffffff604051610df79190613498565b60405180910390a15b5b5b5b508080610e0f90613e46565b915050610c79565b5060005b610100811015610ece576001808285901c161415610ebb578060ff610e409190613cc4565b82610e4b91906138e2565b600860000160046101000a81548162ffffff021916908362ffffff1602179055507fde2bff2d6b387fb139cc88f40ef98966425b338cd8a98b2b4e8230a99c74cfe38160ff610e9a9190613cc4565b83610ea591906138e2565b604051610eb29190613741565b60405180910390a15b8080610ec690613ea1565b915050610e1b565b507fde2bff2d6b387fb139cc88f40ef98966425b338cd8a98b2b4e8230a99c74cfe362ffffff604051610f019190613498565b60405180910390a1505050565b600860000160009054906101000a900460ff16610f60576040517f08c379a0000000000000000000000000000000000000000000000000000000008152600401610f5790613661565b60405180910390fd5b6000600560003373ffffffffffffffffffffffffffffffffffffffff1673ffffffffffffffffffffffffffffffffffffffff16815260200190815260200160002060009054906101000a900469ffffffffffffffffffff1690506000600560003373ffffffffffffffffffffffffffffffffffffffff1673ffffffffffffffffffffffffffffffffffffffff16815260200190815260200160002060006101000a81548169ffffffffffffffffffff021916908369ffffffffffffffffffff1602179055503373ffffffffffffffffffffffffffffffffffffffff166108fc8269ffffffffffffffffffff169081150290604051600060405180830381858888f19350505050158015611077573d6000803e3d6000fd5b5050565b60008054906101000a900473ffffffffffffffffffffffffffffffffffffffff1673ffffffffffffffffffffffffffffffffffffffff163373ffffffffffffffffffffffffffffffffffffffff1614611109576040517f08c379a0000000000000000000000000000000000000000000000000000000008152600401611100906135a1565b60405180910390fd5b600860000160039054906101000a900460ff1660ff168160ff161015611164576040517f08c379a000000000000000000000000000000000000000000000000000000000815260040161115b90613561565b60405180910390fd5b81600860000160026101000a81548160ff02191690831515021790555080600860000160036101000a81548160ff021916908360ff1602179055505050565b600080610100836111b49190613f06565b6101006111c19190613c90565b61ffff1690506001816111d49190613cc4565b6001901b915050919050565b60008060036000600860000160039054906101000a900460ff1660ff168152602001908152602001600020905060006101008461121d91906139af565b61ffff169050600080821415611239578260000154905061126d565b600182141561124e578260010154905061126c565b6002821415611263578260020154905061126b565b826003015490505b5b5b6000611278866111a3565b9050600081831690506000811195505050505050919050565b6000600660008373ffffffffffffffffffffffffffffffffffffffff1673ffffffffffffffffffffffffffffffffffffffff168152602001908152602001600020549050919050565b600860000160019054906101000a900460ff161561132d576040517f08c379a000000000000000000000000000000000000000000000000000000000815260040161132490613521565b60405180910390fd5b600a600860000160039054906101000a900460ff1660ff1614611385576040517f08c379a000000000000000000000000000000000000000000000000000000000815260040161137c90613581565b60405180910390fd5b600860010160009054906101000a900473ffffffffffffffffffffffffffffffffffffffff1673ffffffffffffffffffffffffffffffffffffffff16632709c803600860000160079054906101000a900473ffffffffffffffffffffffffffffffffffffffff1633600860000160049054906101000a900462ffffff16856040518563ffffffff1660e01b81526004016114229493929190613431565b60206040518083038186803b15801561143a57600080fd5b505afa15801561144e573d6000803e3d6000fd5b505050506040513d601f19601f820116820180604052508101906114729190612eab565b6114b1576040517f08c379a00000000000000000000000000000000000000000000000000000000081526004016114a890613681565b60405180910390fd5b6001600860000160016101000a81548160ff0219169083151502179055503373ffffffffffffffffffffffffffffffffffffffff166108fc60146008600201546114fb91906139e0565b9081150290604051600060405180830381858888f19350505050158015611526573d6000803e3d6000fd5b5050565b6000600254905090565b60003411611577576040517f08c379a000000000000000000000000000000000000000000000000000000000815260040161156e906136a1565b60405180910390fd5b600860000160029054906101000a900460ff166115c9576040517f08c379a00000000000000000000000000000000000000000000000000000000081526004016115c0906135e1565b60405180910390fd5b6000600860000160039054906101000a900460ff1660ff161461162f576115ef816111e0565b61162e576040517f08c379a000000000000000000000000000000000000000000000000000000000815260040161162590613641565b60405180910390fd5b5b6000600460003373ffffffffffffffffffffffffffffffffffffffff1673ffffffffffffffffffffffffffffffffffffffff16815260200190815260200160002090506000808260000160049054906101000a900469ffffffffffffffffffff1669ffffffffffffffffffff1611905060008180156116e557506116c48360000160029054906101000a900461ffff166111e0565b806116e457506000600860000160039054906101000a900460ff1660ff16145b5b9050801561174a578260000160029054906101000a900461ffff1661ffff168461ffff1614611749576040517f08c379a0000000000000000000000000000000000000000000000000000000008152600401611740906136c1565b60405180910390fd5b5b600034905060008561ffff168560000160029054906101000a900461ffff1661ffff1614159050808061177b575083155b156118ec576040518060a00160405280600015158152602001600860000160039054906101000a900460ff1660ff1681526020018761ffff1681526020018369ffffffffffffffffffff1681526020018369ffffffffffffffffffff16815250600460003373ffffffffffffffffffffffffffffffffffffffff1673ffffffffffffffffffffffffffffffffffffffff16815260200190815260200160002060008201518160000160006101000a81548160ff02191690831515021790555060208201518160000160016101000a81548160ff021916908360ff16021790555060408201518160000160026101000a81548161ffff021916908361ffff16021790555060608201518160000160046101000a81548169ffffffffffffffffffff021916908369ffffffffffffffffffff160217905550608082015181600001600e6101000a81548169ffffffffffffffffffff021916908369ffffffffffffffffffff1602179055509050506118f7565b6118f68583612555565b5b6000600760008861ffff1661ffff168152602001908152602001600020905060008160000160049054906101000a900469ffffffffffffffffffff1669ffffffffffffffffffff161415611a8d576040518060a00160405280600015158152602001600860000160039054906101000a900460ff1660ff1681526020018861ffff1681526020018469ffffffffffffffffffff1681526020018469ffffffffffffffffffff16815250600760008961ffff1661ffff16815260200190815260200160002060008201518160000160006101000a81548160ff02191690831515021790555060208201518160000160016101000a81548160ff021916908360ff16021790555060408201518160000160026101000a81548161ffff021916908361ffff16021790555060608201518160000160046101000a81548169ffffffffffffffffffff021916908369ffffffffffffffffffff160217905550608082015181600001600e6101000a81548169ffffffffffffffffffff021916908369ffffffffffffffffffff160217905550905050611a98565b611a978184612555565b5b611aa1426109e3565b82600560003373ffffffffffffffffffffffffffffffffffffffff1673ffffffffffffffffffffffffffffffffffffffff16815260200190815260200160002060008282829054906101000a900469ffffffffffffffffffff16611b05919061396f565b92506101000a81548169ffffffffffffffffffff021916908369ffffffffffffffffffff1602179055508269ffffffffffffffffffff1660086002016000828254611b5091906138e2565b925050819055508269ffffffffffffffffffff1660086003016000828254611b7891906138e2565b9250508190555050505050505050565b600080600080600060036000600860000160039054906101000a900460ff1660ff1681526020019081526020016000209050806000015481600101548260020154836003015494509450945094505090919293565b60008054906101000a900473ffffffffffffffffffffffffffffffffffffffff1673ffffffffffffffffffffffffffffffffffffffff163373ffffffffffffffffffffffffffffffffffffffff1614611c6b576040517f08c379a0000000000000000000000000000000000000000000000000000000008152600401611c62906135a1565b60405180910390fd5b600060036000600860000160039054906101000a900460ff1660ff16815260200190815260200160002090508481600001819055508381600101819055508281600201819055508181600301819055505050505050565b600080600080600760008661ffff1661ffff16815260200190815260200160002090508060000160019054906101000a900460ff168160000160049054906101000a900469ffffffffffffffffffff1682600001600e9054906101000a900469ffffffffffffffffffff16935093509350509193909250565b60008580611d94575060008054906101000a900473ffffffffffffffffffffffffffffffffffffffff1673ffffffffffffffffffffffffffffffffffffffff163373ffffffffffffffffffffffffffffffffffffffff16145b611dd3576040517f08c379a0000000000000000000000000000000000000000000000000000000008152600401611dca906135a1565b60405180910390fd5b85611de15760025492504391505b60006002600a84611df291906139e0565b611dfc9190613f37565b1415611e3d576040517f08c379a0000000000000000000000000000000000000000000000000000000008152600401611e34906135c1565b60405180910390fd5b611e45612c7d565b600f8516816080019060ff16908160ff1681525050600f60048663ffffffff16901c16816020019060ff16908160ff1681525050600f60088663ffffffff16901c168160a0019060ff16908160ff1681525050600f600c8663ffffffff16901c168160c0019060ff16908160ff1681525050600f60108663ffffffff16901c16816040019060ff16908160ff1681525050600f60148663ffffffff16901c16816060019060ff16908160ff1681525050611efd612c7d565b600f8716816080019060ff16908160ff1681525050600f60048863ffffffff16901c16816020019060ff16908160ff1681525050600f60088863ffffffff16901c168160a0019060ff16908160ff1681525050600f600c8863ffffffff16901c168160c0019060ff16908160ff1681525050600f60108863ffffffff16901c16816040019060ff16908160ff1681525050600f60148863ffffffff16901c16816060019060ff16908160ff16815250508160c001518260a0015183606001518460400151611fcb9190613938565b611fd59190613938565b611fdf9190613938565b60ff168160c001518260a00151836060015184604001516120009190613938565b61200a9190613938565b6120149190613938565b60ff1611158160000190151590811515815250506000806001905060008688604051602001612044929190613405565b6040516020818303038152906040528051906020012060001c905060005b600a81101561229357846000015161207b57600161207e565b60005b60ff166001846fffffffffffffffffffffffffffffffff16901b6120a2919061389c565b92508460000151156120d4576120bb858785858d6126c1565b809650819850829750839a5084995050505050506120f6565b6120e1868685858d6126c1565b809650819850829750839950849a5050505050505b60008560a0015160ff161480612113575060008660a0015160ff16145b1561215c5760008660a0015160ff161461212e576001612131565b60005b60ff166001846fffffffffffffffffffffffffffffffff16901b612155919061389c565b9250612293565b8361218c578460000151158560000190151590811515815250508560000151158660000190151590811515815250505b6009811415612280578560a0015160ff168560a0015160ff161461220f578560a0015160ff168560a0015160ff16116121e657600180846fffffffffffffffffffffffffffffffff16901b6121e1919061389c565b61220a565b60006001846fffffffffffffffffffffffffffffffff16901b612209919061389c565b5b61227d565b600060028a84604051602001612226929190613405565b6040516020818303038152906040528051906020012060001c6122499190613f37565b14612255576001612258565b60005b60ff166001846fffffffffffffffffffffffffffffffff16901b61227c919061389c565b5b92505b808061228b90613ea1565b915050612062565b50819550505050505095945050505050565b60008082600860000160039054906101000a900460ff166122c69190613cf8565b905060008160026122d79190613aaf565b905080856122e59190613c4c565b9250505092915050565b60008054906101000a900473ffffffffffffffffffffffffffffffffffffffff1673ffffffffffffffffffffffffffffffffffffffff163373ffffffffffffffffffffffffffffffffffffffff161461237d576040517f08c379a0000000000000000000000000000000000000000000000000000000008152600401612374906135a1565b60405180910390fd5b80600860000160006101000a81548160ff02191690831515021790555050565b6124378383836040516024016123b5939291906134e3565b6040516020818303038152906040527f969cdd03000000000000000000000000000000000000000000000000000000007bffffffffffffffffffffffffffffffffffffffffffffffffffffffff19166020820180517bffffffffffffffffffffffffffffffffffffffffffffffffffffffff8381831617835250505050612952565b505050565b6000601460086002015461245091906139e0565b90506124746040518060600160405280602f81526020016143b5602f9139826124b9565b8060086004018190555080600860020160008282546124939190613cc4565b9250508190555080600860030160008282546124af9190613cc4565b9250508190555050565b61255182826040516024016124cf9291906134b3565b6040516020818303038152906040527f9710a9d0000000000000000000000000000000000000000000000000000000007bffffffffffffffffffffffffffffffffffffffffffffffffffffffff19166020820180517bffffffffffffffffffffffffffffffffffffffffffffffffffffffff8381831617835250505050612952565b5050565b60008260000160019054906101000a900460ff16600860000160039054906101000a900460ff166125869190613cf8565b90508060026125959190613a64565b83600001600e8282829054906101000a900469ffffffffffffffffffff166125bd9190613c4c565b92506101000a81548169ffffffffffffffffffff021916908369ffffffffffffffffffff1602179055508183600001600e8282829054906101000a900469ffffffffffffffffffff16612610919061396f565b92506101000a81548169ffffffffffffffffffff021916908369ffffffffffffffffffff160217905550818360000160048282829054906101000a900469ffffffffffffffffffff16612663919061396f565b92506101000a81548169ffffffffffffffffffff021916908369ffffffffffffffffffff160217905550600860000160039054906101000a900460ff168360000160016101000a81548160ff021916908360ff160217905550505050565b6126c9612c7d565b6126d1612c7d565b6000806000806126e28b8b8a61297b565b9050806020015160ff16816040015160ff16111561280c5760008a6040015160ff16118015612718575060008b6040015160ff16115b15612782578060e0015160ff16816020015182604001516127399190613cf8565b60ff161161276957806020015181604001516127559190613cf8565b8160e001516127649190613cf8565b61276c565b60005b8b6040019060ff16908160ff1681525050612807565b60008a6040015160ff161480156127a0575060008b6040015160ff16145b15612806578060e0015160ff16816020015182604001516127c19190613cf8565b60ff16116127f157806020015181604001516127dd9190613cf8565b8160e001516127ec9190613cf8565b6127f4565b60005b8b60a0019060ff16908160ff16815250505b5b6128c2565b806020015160ff16816040015160ff1610156128c15760008a6040015160ff16111561287b5780610100015160ff16816020015160ff161161286257806020015181610100015161285d9190613cf8565b612865565b60005b8a6040019060ff16908160ff16815250506128c0565b80610100015160ff16816020015160ff16116128ab5780602001518161010001516128a69190613cf8565b6128ae565b60005b8a60a0019060ff16908160ff16815250505b5b5b806040015160ff166004826020015160ff16901b60ff1660088b6fffffffffffffffffffffffffffffffff16901b6128fa919061389c565b612904919061389c565b98508a8a8a83600001518a8c604051602001612921929190613405565b6040516020818303038152906040528051906020012060001c95509550955095509550509550955095509550959050565b60008151905060006a636f6e736f6c652e6c6f679050602083016000808483855afa5050505050565b612983612cce565b61298b612cce565b6000846040015160ff161115612a25578460200151816060019060ff16908160ff16815250508360200151816080019060ff16908160ff168152505084606001518160a0019060ff16908160ff168152505083606001518160c0019060ff16908160ff168152505084604001518160e0019060ff16908160ff1681525050836040015181610100019060ff16908160ff1681525050612aab565b8460800151816060019060ff16908160ff16815250508360800151816080019060ff16908160ff16815250508460c001518160a0019060ff16908160ff16815250508360c001518160c0019060ff16908160ff16815250508460a001518160e0019060ff16908160ff16815250508360a0015181610100019060ff16908160ff16815250505b612abd81606001518260800151612c1f565b612acb578060a00151612add565b60028160a00151612adc9190613c11565b5b60ff1683612aeb9190613f37565b816020019060ff16908160ff1681525050600060028260a00151612b0f9190613c11565b60ff16600f11612b2057600f612b32565b60028260a00151612b319190613c11565b5b9050600f826020015160ff1611612b4d578160200151612b50565b600f5b826020019060ff16908160ff1681525050612b7382606001518360800151612c1f565b612b8d578160a0015160ff16826020015160ff1614612b9b565b8060ff16826020015160ff16145b826000019015159081151581525050612bbc82606001518360800151612c4e565b15612c13578160a0015160ff1660025485604051602001612bde929190613405565b6040516020818303038152906040528051906020012060001c612c019190613f37565b826040019060ff16908160ff16815250505b81925050509392505050565b600080600183600d86612c329190613c11565b612c3c9190613938565b60ff16600154901c1611905092915050565b600080600184600d85612c619190613c11565b612c6b9190613938565b60ff16600154901c1611905092915050565b6040518060e00160405280600015158152602001600060ff168152602001600060ff168152602001600060ff168152602001600060ff168152602001600060ff168152602001600060ff1681525090565b604051806101200160405280600015158152602001600060ff168152602001600060ff168152602001600060ff168152602001600060ff168152602001600060ff168152602001600060ff168152602001600060ff168152602001600060ff1681525090565b6000612d47612d4284613833565b61380e565b905082815260208101848484011115612d5f57600080fd5b612d6a848285613e04565b509392505050565b600081359050612d81816142d0565b92915050565b600081359050612d96816142e7565b92915050565b600081519050612dab816142e7565b92915050565b600082601f830112612dc257600080fd5b8135612dd2848260208601612d34565b91505092915050565b600081359050612dea816142fe565b92915050565b600081359050612dff81614315565b92915050565b600081359050612e148161432c565b92915050565b600081359050612e2981614343565b92915050565b600081359050612e3e8161435a565b92915050565b600081359050612e5381614371565b92915050565b600060208284031215612e6b57600080fd5b6000612e7984828501612d72565b91505092915050565b600060208284031215612e9457600080fd5b6000612ea284828501612d87565b91505092915050565b600060208284031215612ebd57600080fd5b6000612ecb84828501612d9c565b91505092915050565b600080600080600060a08688031215612eec57600080fd5b6000612efa88828901612d87565b9550506020612f0b88828901612e1a565b9450506040612f1c88828901612e1a565b9350506060612f2d88828901612e05565b9250506080612f3e88828901612e05565b9150509295509295909350565b60008060408385031215612f5e57600080fd5b6000612f6c85828601612d87565b9250506020612f7d85828601612e2f565b9150509250929050565b600060208284031215612f9957600080fd5b600082013567ffffffffffffffff811115612fb357600080fd5b612fbf84828501612db1565b91505092915050565b600060208284031215612fda57600080fd5b6000612fe884828501612ddb565b91505092915050565b60006020828403121561300357600080fd5b600061301184828501612df0565b91505092915050565b6000806000806080858703121561303057600080fd5b600061303e87828801612e05565b945050602061304f87828801612e05565b935050604061306087828801612e05565b925050606061307187828801612e05565b91505092959194509250565b6000806040838503121561309057600080fd5b600061309e85828601612e44565b92505060206130af85828601612e2f565b9150509250929050565b6130c281613d2c565b82525050565b6130d181613d3e565b82525050565b60006130e282613864565b6130ec818561387a565b93506130fc818560208601613e13565b61310581613ff5565b840191505092915050565b61311981613de0565b82525050565b600061312a8261386f565b613134818561388b565b9350613144818560208601613e13565b61314d81613ff5565b840191505092915050565b600061316560208361388b565b915061317082614020565b602082019050919050565b600061318860168361388b565b915061319382614049565b602082019050919050565b60006131ab601e8361388b565b91506131b682614072565b602082019050919050565b60006131ce60128361388b565b91506131d98261409b565b602082019050919050565b60006131f1601c8361388b565b91506131fc826140c4565b602082019050919050565b6000613214601c8361388b565b915061321f826140ed565b602082019050919050565b600061323760258361388b565b915061324282614116565b604082019050919050565b600061325a60178361388b565b915061326582614165565b602082019050919050565b600061327d60338361388b565b91506132888261418e565b604082019050919050565b60006132a060158361388b565b91506132ab826141dd565b602082019050919050565b60006132c360168361388b565b91506132ce82614206565b602082019050919050565b60006132e6601a8361388b565b91506132f18261422f565b602082019050919050565b600061330960218361388b565b915061331482614258565b604082019050919050565b600061332c60168361388b565b9150613337826142a7565b602082019050919050565b61334b81613d4a565b82525050565b61336261335d82613d4a565b613eea565b82525050565b61337181613d66565b82525050565b61338081613d94565b82525050565b61338f81613df2565b82525050565b61339e81613da3565b82525050565b6133b56133b082613da3565b613efc565b82525050565b6133c481613dca565b82525050565b6133d381613dbd565b82525050565b60006133e582856133a4565b6020820191506133f58284613351565b6010820191508190509392505050565b600061341182856133a4565b60208201915061342182846133a4565b6020820191508190509392505050565b600060808201905061344660008301876130b9565b61345360208301866130b9565b6134606040830185613386565b818103606083015261347281846130d7565b905095945050505050565b600060208201905061349260008301846130c8565b92915050565b60006020820190506134ad6000830184613110565b92915050565b600060408201905081810360008301526134cd818561311f565b90506134dc6020830184613395565b9392505050565b600060608201905081810360008301526134fd818661311f565b905061350c6020830185613395565b6135196040830184613395565b949350505050565b6000602082019050818103600083015261353a81613158565b9050919050565b6000602082019050818103600083015261355a8161317b565b9050919050565b6000602082019050818103600083015261357a8161319e565b9050919050565b6000602082019050818103600083015261359a816131c1565b9050919050565b600060208201905081810360008301526135ba816131e4565b9050919050565b600060208201905081810360008301526135da81613207565b9050919050565b600060208201905081810360008301526135fa8161322a565b9050919050565b6000602082019050818103600083015261361a8161324d565b9050919050565b6000602082019050818103600083015261363a81613270565b9050919050565b6000602082019050818103600083015261365a81613293565b9050919050565b6000602082019050818103600083015261367a816132b6565b9050919050565b6000602082019050818103600083015261369a816132d9565b9050919050565b600060208201905081810360008301526136ba816132fc565b9050919050565b600060208201905081810360008301526136da8161331f565b9050919050565b60006020820190506136f66000830184613342565b92915050565b60006080820190506137116000830187613368565b61371e60208301866133bb565b61372b60408301856133bb565b61373860608301846133ca565b95945050505050565b60006020820190506137566000830184613377565b92915050565b60006020820190506137716000830184613395565b92915050565b600060808201905061378c6000830187613395565b6137996020830186613395565b6137a66040830185613395565b6137b36060830184613395565b95945050505050565b60006020820190506137d160008301846133bb565b92915050565b60006060820190506137ec60008301866133ca565b6137f960208301856133bb565b61380660408301846133bb565b949350505050565b6000613818613829565b90506138248282613e70565b919050565b6000604051905090565b600067ffffffffffffffff82111561384e5761384d613fc6565b5b61385782613ff5565b9050602081019050919050565b600081519050919050565b600081519050919050565b600082825260208201905092915050565b600082825260208201905092915050565b60006138a782613d4a565b91506138b283613d4a565b9250826fffffffffffffffffffffffffffffffff038211156138d7576138d6613f68565b5b828201905092915050565b60006138ed82613da3565b91506138f883613da3565b9250827fffffffffffffffffffffffffffffffffffffffffffffffffffffffffffffffff0382111561392d5761392c613f68565b5b828201905092915050565b600061394382613dbd565b915061394e83613dbd565b92508260ff0382111561396457613963613f68565b5b828201905092915050565b600061397a82613dca565b915061398583613dca565b92508269ffffffffffffffffffff038211156139a4576139a3613f68565b5b828201905092915050565b60006139ba82613d66565b91506139c583613d66565b9250826139d5576139d4613f97565b5b828204905092915050565b60006139eb82613da3565b91506139f683613da3565b925082613a0657613a05613f97565b5b828204905092915050565b6000808291508390505b6001851115613a5b57808604811115613a3757613a36613f68565b5b6001851615613a465780820291505b8081029050613a5485614013565b9450613a1b565b94509492505050565b6000613a6f82613da3565b9150613a7a83613dbd565b9250613aa77fffffffffffffffffffffffffffffffffffffffffffffffffffffffffffffffff8484613ae4565b905092915050565b6000613aba82613dca565b9150613ac583613dbd565b9250613adc69ffffffffffffffffffff8484613ae4565b905092915050565b600082613af45760019050613bb0565b81613b025760009050613bb0565b8160018114613b185760028114613b2257613b51565b6001915050613bb0565b60ff841115613b3457613b33613f68565b5b8360020a915084821115613b4b57613b4a613f68565b5b50613bb0565b5060208310610133831016604e8410600b8410161715613b865782820a905083811115613b8157613b80613f68565b5b613bb0565b613b938484846001613a11565b92509050818404811115613baa57613ba9613f68565b5b81810290505b9392505050565b6000613bc282613da3565b9150613bcd83613da3565b9250817fffffffffffffffffffffffffffffffffffffffffffffffffffffffffffffffff0483118215151615613c0657613c05613f68565b5b828202905092915050565b6000613c1c82613dbd565b9150613c2783613dbd565b92508160ff0483118215151615613c4157613c40613f68565b5b828202905092915050565b6000613c5782613dca565b9150613c6283613dca565b92508169ffffffffffffffffffff0483118215151615613c8557613c84613f68565b5b828202905092915050565b6000613c9b82613d66565b9150613ca683613d66565b925082821015613cb957613cb8613f68565b5b828203905092915050565b6000613ccf82613da3565b9150613cda83613da3565b925082821015613ced57613cec613f68565b5b828203905092915050565b6000613d0382613dbd565b9150613d0e83613dbd565b925082821015613d2157613d20613f68565b5b828203905092915050565b6000613d3782613d74565b9050919050565b60008115159050919050565b60006fffffffffffffffffffffffffffffffff82169050919050565b600061ffff82169050919050565b600073ffffffffffffffffffffffffffffffffffffffff82169050919050565b600062ffffff82169050919050565b6000819050919050565b600063ffffffff82169050919050565b600060ff82169050919050565b600069ffffffffffffffffffff82169050919050565b6000613deb82613d94565b9050919050565b6000613dfd82613d94565b9050919050565b82818337600083830152505050565b60005b83811015613e31578082015181840152602081019050613e16565b83811115613e40576000848401525b50505050565b6000613e5182613da3565b91506000821415613e6557613e64613f68565b5b600182039050919050565b613e7982613ff5565b810181811067ffffffffffffffff82111715613e9857613e97613fc6565b5b80604052505050565b6000613eac82613da3565b91507fffffffffffffffffffffffffffffffffffffffffffffffffffffffffffffffff821415613edf57613ede613f68565b5b600182019050919050565b6000613ef582614006565b9050919050565b6000819050919050565b6000613f1182613d66565b9150613f1c83613d66565b925082613f2c57613f2b613f97565b5b828206905092915050565b6000613f4282613da3565b9150613f4d83613da3565b925082613f5d57613f5c613f97565b5b828206905092915050565b7f4e487b7100000000000000000000000000000000000000000000000000000000600052601160045260246000fd5b7f4e487b7100000000000000000000000000000000000000000000000000000000600052601260045260246000fd5b7f4e487b7100000000000000000000000000000000000000000000000000000000600052604160045260246000fd5b6000601f19601f8301169050919050565b60008160801b9050919050565b60008160011c9050919050565b7f426f756e74792068617320616c7265616479206265656e2072656465656d6564600082015250565b7f4d756c7469706c696572206c657373207468616e203200000000000000000000600082015250565b7f526571756972657320677265617465722063757272656e7420726f756e640000600082015250565b7f4d757374206265206c61737420726f756e640000000000000000000000000000600082015250565b7f4d7573742062652063616c6c656420627920636f6e74726f6c6c657200000000600082015250565b7f426c6f636b6e756d20686173206576656e2074656e7320646967697400000000600082015250565b7f42657474696e67206973206e6f74206f70656e3b20776520617265206d69642d60008201527f726f756e64000000000000000000000000000000000000000000000000000000602082015250565b7f4265742070726576696f75736c792072656465656d6564000000000000000000600082015250565b7f426c6f636b6e756d20686173206f64642074656e73206469676974206f72206260008201527f657474696e67206973206e6f74206f70656e2e00000000000000000000000000602082015250565b7f4669676874657220697320656c696d696e617465640000000000000000000000600082015250565b7f4d75737420626520696e206572726f7220737461746500000000000000000000600082015250565b7f507572636861736572206e6f74206f6e2077686974656c697374000000000000600082015250565b7f4d75737420706c61636520612062657420686967686572207468616e207a657260008201527f6f00000000000000000000000000000000000000000000000000000000000000602082015250565b7f43616e6e6f74206368616e676520666967687465727300000000000000000000600082015250565b6142d981613d2c565b81146142e457600080fd5b50565b6142f081613d3e565b81146142fb57600080fd5b50565b61430781613d4a565b811461431257600080fd5b50565b61431e81613d66565b811461432957600080fd5b50565b61433581613da3565b811461434057600080fd5b50565b61434c81613dad565b811461435757600080fd5b50565b61436381613dbd565b811461436e57600080fd5b50565b61437a81613dca565b811461438557600080fd5b5056fe5472616e7366657272696e6720626574746f722773207368617265206f6620257320746f20626574746f722e53657474696e67206173696465203525206f6620706f7420666f72206f776e65722c20746f74616c6c696e67202573506f74207368617265206f662025732072656465656d65642c20746f74616c20706f74206973206e6f772025732e496e2072656465656d506f7428292c206669676874657245717569747920697320257320616e642066696768746572546f74616c4571756974792069732025732ea2646970667358221220f370ecc025f65103f90af471bc031f6c72e83372ebad9854333611de74326ac664736f6c63430008040033",
  "linkReferences": {},
  "deployedLinkReferences": {}
}